{
  "contractName": "CourseMarketplace",
  "abi": [
    {
      "inputs": [],
      "stateMutability": "nonpayable",
      "type": "constructor"
    },
    {
      "inputs": [],
      "name": "AddressAlreadyOwnsCourseError",
      "type": "error"
    },
    {
      "inputs": [],
      "name": "CourseDoesNotExistError",
      "type": "error"
    },
    {
      "inputs": [],
      "name": "InvalidStateError",
      "type": "error"
    },
    {
      "inputs": [],
      "name": "NotOwnerError",
      "type": "error"
    },
    {
      "inputs": [
        {
          "internalType": "bytes16",
          "name": "courseId",
          "type": "bytes16"
        },
        {
          "internalType": "bytes32",
          "name": "proof",
          "type": "bytes32"
        }
      ],
      "name": "purchaseCourse",
      "outputs": [],
      "stateMutability": "payable",
      "type": "function",
      "payable": true
    },
    {
      "inputs": [
        {
          "internalType": "bytes32",
          "name": "courseHash",
          "type": "bytes32"
        }
      ],
      "name": "activateCourse",
      "outputs": [],
      "stateMutability": "nonpayable",
      "type": "function"
    },
    {
      "inputs": [
        {
          "internalType": "address",
          "name": "newOwner",
          "type": "address"
        }
      ],
      "name": "transferOwnership",
      "outputs": [],
      "stateMutability": "nonpayable",
      "type": "function"
    },
    {
      "inputs": [],
      "name": "getCourseCount",
      "outputs": [
        {
          "internalType": "uint256",
          "name": "",
          "type": "uint256"
        }
      ],
      "stateMutability": "view",
      "type": "function",
      "constant": true
    },
    {
      "inputs": [
        {
          "internalType": "uint256",
          "name": "index",
          "type": "uint256"
        }
      ],
      "name": "getCourseHashAtIndex",
      "outputs": [
        {
          "internalType": "bytes32",
          "name": "",
          "type": "bytes32"
        }
      ],
      "stateMutability": "view",
      "type": "function",
      "constant": true
    },
    {
      "inputs": [
        {
          "internalType": "bytes32",
          "name": "courseHash",
          "type": "bytes32"
        }
      ],
      "name": "getCourseByHash",
      "outputs": [
        {
          "components": [
            {
              "internalType": "uint256",
              "name": "id",
              "type": "uint256"
            },
            {
              "internalType": "uint256",
              "name": "price",
              "type": "uint256"
            },
            {
              "internalType": "bytes32",
              "name": "proof",
              "type": "bytes32"
            },
            {
              "internalType": "address",
              "name": "owner",
              "type": "address"
            },
            {
              "internalType": "enum CourseMarketplace.State",
              "name": "state",
              "type": "uint8"
            }
          ],
          "internalType": "struct CourseMarketplace.Course",
          "name": "",
          "type": "tuple"
        }
      ],
      "stateMutability": "view",
      "type": "function",
      "constant": true
    },
    {
      "inputs": [],
      "name": "getContractOwner",
      "outputs": [
        {
          "internalType": "address",
          "name": "",
          "type": "address"
        }
      ],
      "stateMutability": "view",
      "type": "function",
      "constant": true
    }
  ],
  "bytecode": "0x608060405234801561001057600080fd5b506100203361002560201b60201c565b610069565b80600360006101000a81548173ffffffffffffffffffffffffffffffffffffffff021916908373ffffffffffffffffffffffffffffffffffffffff16021790555050565b610dd8806100786000396000f3fe6080604052600436106100705760003560e01c80636d11290b1161004e5780636d11290b1461010657806396cfda0614610143578063d76821cb1461016e578063f2fde38b1461018a57610070565b80633926257214610075578063442890d51461009e57806362e4e6ac146100c9575b600080fd5b34801561008157600080fd5b5061009c600480360381019061009791906109d0565b6101b3565b005b3480156100aa57600080fd5b506100b3610386565b6040516100c09190610b4d565b60405180910390f35b3480156100d557600080fd5b506100f060048036038101906100eb91906109d0565b6103b0565b6040516100fd9190610b83565b60405180910390f35b34801561011257600080fd5b5061012d600480360381019061012891906109f9565b6104d7565b60405161013a9190610b68565b60405180910390f35b34801561014f57600080fd5b506101586104f4565b6040516101659190610b9e565b60405180910390f35b61018860048036038101906101839190610994565b6104fe565b005b34801561019657600080fd5b506101b160048036038101906101ac919061096b565b6106ea565b005b6101bb610386565b73ffffffffffffffffffffffffffffffffffffffff163373ffffffffffffffffffffffffffffffffffffffff161461021f576040517f74a2152700000000000000000000000000000000000000000000000000000000815260040160405180910390fd5b61022881610762565b61025e576040517f29dfcf8900000000000000000000000000000000000000000000000000000000815260040160405180910390fd5b60008060008381526020019081526020016000209050600060028111156102ae577f4e487b7100000000000000000000000000000000000000000000000000000000600052602160045260246000fd5b8160030160149054906101000a900460ff1660028111156102f8577f4e487b7100000000000000000000000000000000000000000000000000000000600052602160045260246000fd5b1461032f576040517fbb8cecb500000000000000000000000000000000000000000000000000000000815260040160405180910390fd5b60018160030160146101000a81548160ff0219169083600281111561037d577f4e487b7100000000000000000000000000000000000000000000000000000000600052602160045260246000fd5b02179055505050565b6000600360009054906101000a900473ffffffffffffffffffffffffffffffffffffffff16905090565b6103b8610897565b6000808381526020019081526020016000206040518060a00160405290816000820154815260200160018201548152602001600282015481526020016003820160009054906101000a900473ffffffffffffffffffffffffffffffffffffffff1673ffffffffffffffffffffffffffffffffffffffff1673ffffffffffffffffffffffffffffffffffffffff1681526020016003820160149054906101000a900460ff166002811115610494577f4e487b7100000000000000000000000000000000000000000000000000000000600052602160045260246000fd5b60028111156104cc577f4e487b7100000000000000000000000000000000000000000000000000000000600052602160045260246000fd5b815250509050919050565b600060016000838152602001908152602001600020549050919050565b6000600254905090565b60008233604051602001610513929190610b21565b60405160208183030381529060405280519060200120905060006002600081548092919061054090610c50565b91905055905061054f826107e6565b15610586576040517f0aaf0b9b00000000000000000000000000000000000000000000000000000000815260040160405180910390fd5b8160016000838152602001908152602001600020819055506040518060a001604052808281526020013481526020018481526020013373ffffffffffffffffffffffffffffffffffffffff16815260200160006002811115610611577f4e487b7100000000000000000000000000000000000000000000000000000000600052602160045260246000fd5b81525060008084815260200190815260200160002060008201518160000155602082015181600101556040820151816002015560608201518160030160006101000a81548173ffffffffffffffffffffffffffffffffffffffff021916908373ffffffffffffffffffffffffffffffffffffffff16021790555060808201518160030160146101000a81548160ff021916908360028111156106dc577f4e487b7100000000000000000000000000000000000000000000000000000000600052602160045260246000fd5b021790555090505050505050565b6106f2610386565b73ffffffffffffffffffffffffffffffffffffffff163373ffffffffffffffffffffffffffffffffffffffff1614610756576040517f74a2152700000000000000000000000000000000000000000000000000000000815260040160405180910390fd5b61075f81610853565b50565b6000806000808481526020019081526020016000209050600073ffffffffffffffffffffffffffffffffffffffff168160030160009054906101000a900473ffffffffffffffffffffffffffffffffffffffff1673ffffffffffffffffffffffffffffffffffffffff16146107db5760019150506107e1565b60009150505b919050565b60003373ffffffffffffffffffffffffffffffffffffffff1660008084815260200190815260200160002060030160009054906101000a900473ffffffffffffffffffffffffffffffffffffffff1673ffffffffffffffffffffffffffffffffffffffff16149050919050565b80600360006101000a81548173ffffffffffffffffffffffffffffffffffffffff021916908373ffffffffffffffffffffffffffffffffffffffff16021790555050565b6040518060a00160405280600081526020016000815260200160008019168152602001600073ffffffffffffffffffffffffffffffffffffffff16815260200160006002811115610911577f4e487b7100000000000000000000000000000000000000000000000000000000600052602160045260246000fd5b81525090565b60008135905061092681610d46565b92915050565b60008135905061093b81610d5d565b92915050565b60008135905061095081610d74565b92915050565b60008135905061096581610d8b565b92915050565b60006020828403121561097d57600080fd5b600061098b84828501610917565b91505092915050565b600080604083850312156109a757600080fd5b60006109b58582860161092c565b92505060206109c685828601610941565b9150509250929050565b6000602082840312156109e257600080fd5b60006109f084828501610941565b91505092915050565b600060208284031215610a0b57600080fd5b6000610a1984828501610956565b91505092915050565b610a2b81610bb9565b82525050565b610a3a81610bb9565b82525050565b610a51610a4c82610bb9565b610c99565b82525050565b610a68610a6382610bcb565b610cab565b82525050565b610a7781610bf7565b82525050565b610a8681610bf7565b82525050565b610a9581610c3e565b82525050565b60a082016000820151610ab16000850182610b03565b506020820151610ac46020850182610b03565b506040820151610ad76040850182610a6e565b506060820151610aea6060850182610a22565b506080820151610afd6080850182610a8c565b50505050565b610b0c81610c34565b82525050565b610b1b81610c34565b82525050565b6000610b2d8285610a57565b601082019150610b3d8284610a40565b6014820191508190509392505050565b6000602082019050610b626000830184610a31565b92915050565b6000602082019050610b7d6000830184610a7d565b92915050565b600060a082019050610b986000830184610a9b565b92915050565b6000602082019050610bb36000830184610b12565b92915050565b6000610bc482610c14565b9050919050565b60007fffffffffffffffffffffffffffffffff0000000000000000000000000000000082169050919050565b6000819050919050565b6000819050610c0f82610d32565b919050565b600073ffffffffffffffffffffffffffffffffffffffff82169050919050565b6000819050919050565b6000610c4982610c01565b9050919050565b6000610c5b82610c34565b91507fffffffffffffffffffffffffffffffffffffffffffffffffffffffffffffffff821415610c8e57610c8d610cc7565b5b600182019050919050565b6000610ca482610cb5565b9050919050565b6000819050919050565b6000610cc082610d25565b9050919050565b7f4e487b7100000000000000000000000000000000000000000000000000000000600052601160045260246000fd5b7f4e487b7100000000000000000000000000000000000000000000000000000000600052602160045260246000fd5b60008160601b9050919050565b60038110610d4357610d42610cf6565b5b50565b610d4f81610bb9565b8114610d5a57600080fd5b50565b610d6681610bcb565b8114610d7157600080fd5b50565b610d7d81610bf7565b8114610d8857600080fd5b50565b610d9481610c34565b8114610d9f57600080fd5b5056fea264697066735822122000c50ff058cc4e694922c9c2dac302bb2771a4359a1c30a5e661097059a6d3a164736f6c63430008040033",
  "immutableReferences": {},
  "source": "// SPDX-License-Identifier: GPL-3.0\n\npragma solidity >=0.7.0 <0.9.0;\n\ncontract CourseMarketplace {\n    enum State {\n        Purchased,\n        Activated,\n        Deactivated\n    }\n\n    struct Course {\n        uint256 id; // 32 bytes\n        uint256 price; // 32 bytes\n        bytes32 proof; // 32 bytes\n        address owner; // 20 bytes\n        State state; // 1 byte\n    }\n\n    // mapping of courseHash to Course data\n    mapping(bytes32 => Course) private ownedCourses;\n\n    // mapping of courseID to courseHash\n    mapping(uint256 => bytes32) private ownedCoursesHashList;\n\n    // number of all courses and id of the course\n    uint256 private totalOwnedCourses;\n\n    address payable private owner;\n\n    constructor() {\n        setContractOwner(msg.sender);\n    }\n\n    /// This address already owns this course\n    error AddressAlreadyOwnsCourseError();\n\n    /// You don't have the permission to perform this operation\n    error NotOwnerError();\n\n    /// This course does not exist\n    error CourseDoesNotExistError();\n\n    /// Course has invalid state!\n    error InvalidStateError();\n\n    modifier onlyOwner() {\n        if (msg.sender != getContractOwner()) {\n            revert NotOwnerError();\n        }\n        _;\n    }\n\n    function purchaseCourse(bytes16 courseId, bytes32 proof) external payable {\n        // keccak256 & abi are globally available in solidity\n        // abi.encodePacked(arg); is used when we want to has multiple values\n        // all at once\n        // courseHas will be unique value formed from the hash of\n        // the senders address and the courseId\n        bytes32 courseHash = keccak256(abi.encodePacked(courseId, msg.sender));\n        uint256 id = totalOwnedCourses++;\n\n        if (isAddressOwner(courseHash)) {\n            revert AddressAlreadyOwnsCourseError();\n        }\n\n        ownedCoursesHashList[id] = courseHash;\n        ownedCourses[courseHash] = Course({\n            id: id,\n            price: msg.value,\n            proof: proof,\n            owner: msg.sender,\n            state: State.Purchased\n        });\n    }\n\n    function activateCourse(bytes32 courseHash) external onlyOwner {\n        if (!isCourseExisting(courseHash)) {\n            revert CourseDoesNotExistError();\n        }\n\n        Course storage course = ownedCourses[courseHash];\n\n        if (course.state != State.Purchased) {\n            revert InvalidStateError();\n        }\n\n        course.state = State.Activated;\n    }\n\n    function transferOwnership(address newOwner) external onlyOwner {\n        setContractOwner(newOwner);\n    }\n\n    function getCourseCount() external view returns (uint256) {\n        return totalOwnedCourses;\n    }\n\n    function getCourseHashAtIndex(uint256 index)\n        external\n        view\n        returns (bytes32)\n    {\n        return ownedCoursesHashList[index];\n    }\n\n    function getCourseByHash(bytes32 courseHash)\n        external\n        view\n        returns (Course memory)\n    {\n        return ownedCourses[courseHash];\n    }\n\n    function getContractOwner() public view returns (address) {\n        return owner;\n    }\n\n    function setContractOwner(address newOwner) private {\n        // owner = newOwner;\n        owner = payable(newOwner);\n    }\n\n    function isCourseExisting(bytes32 courseHash) private view returns (bool) {\n        Course storage course = ownedCourses[courseHash];\n\n        if (course.owner != 0x0000000000000000000000000000000000000000) {\n            return true;\n        }\n        return false;\n    }\n\n    function isAddressOwner(bytes32 courseHash) private view returns (bool) {\n        return ownedCourses[courseHash].owner == msg.sender;\n    }\n}\n\n/**\nconstructor\nexternal functions\nexternal functions that are view\nexternal functions that are pure\npublic functions\npublic functions that are view\npublic functions that are pure\ninternal functions\ninternal functions that are view\ninternal functions that are pure\nprivate functions\nprivate functions that are view\nprivate functison that are pure\n */\n",
  "sourcePath": "/home/russellbest/Development/Blockchain/marketplace-eth/contracts/CourseMarketplace.sol",
  "compiler": {
    "name": "solc",
    "version": "0.8.4+commit.c7e474f2.Emscripten.clang"
  },
  "schemaVersion": "3.4.10",
  "updatedAt": "2022-11-03T05:54:54.806Z",
  "networkType": "ethereum",
  "devdoc": {
    "kind": "dev",
    "methods": {},
    "version": 1
  },
  "userdoc": {
    "errors": {
      "AddressAlreadyOwnsCourseError()": [
        {
          "notice": "This address already owns this course"
        }
      ],
      "CourseDoesNotExistError()": [
        {
          "notice": "This course does not exist"
        }
      ],
      "InvalidStateError()": [
        {
          "notice": "Course has invalid state!"
        }
      ],
      "NotOwnerError()": [
        {
          "notice": "You don't have the permission to perform this operation"
        }
      ]
    },
    "kind": "user",
    "methods": {},
    "version": 1
  }
}