{
  "contractName": "CourseMarketplace",
  "abi": [
    {
      "inputs": [],
      "stateMutability": "nonpayable",
      "type": "constructor"
    },
    {
      "inputs": [],
      "name": "AddressAlreadyOwnsCourseError",
      "type": "error"
    },
    {
      "inputs": [],
      "name": "CourseDoesNotExistError",
      "type": "error"
    },
    {
      "inputs": [],
      "name": "InvalidStateError",
      "type": "error"
    },
    {
      "inputs": [],
      "name": "NotOwnerError",
      "type": "error"
    },
    {
      "inputs": [],
      "name": "SenderIsNotCourseOwnerError",
      "type": "error"
    },
    {
      "inputs": [],
      "name": "isStopped",
      "outputs": [
        {
          "internalType": "bool",
          "name": "",
          "type": "bool"
        }
      ],
      "stateMutability": "view",
      "type": "function",
      "constant": true
    },
    {
      "stateMutability": "payable",
      "type": "receive",
      "payable": true
    },
    {
      "inputs": [
        {
          "internalType": "uint256",
          "name": "amount",
          "type": "uint256"
        }
      ],
      "name": "withdraw",
      "outputs": [],
      "stateMutability": "nonpayable",
      "type": "function"
    },
    {
      "inputs": [],
      "name": "emergencyWithdraw",
      "outputs": [],
      "stateMutability": "nonpayable",
      "type": "function"
    },
    {
      "inputs": [],
      "name": "selfDestruct",
      "outputs": [],
      "stateMutability": "nonpayable",
      "type": "function"
    },
    {
      "inputs": [],
      "name": "stopContract",
      "outputs": [],
      "stateMutability": "nonpayable",
      "type": "function"
    },
    {
      "inputs": [],
      "name": "resumeContract",
      "outputs": [],
      "stateMutability": "nonpayable",
      "type": "function"
    },
    {
      "inputs": [
        {
          "internalType": "bytes16",
          "name": "courseId",
          "type": "bytes16"
        },
        {
          "internalType": "bytes32",
          "name": "proof",
          "type": "bytes32"
        }
      ],
      "name": "purchaseCourse",
      "outputs": [],
      "stateMutability": "payable",
      "type": "function",
      "payable": true
    },
    {
      "inputs": [
        {
          "internalType": "bytes32",
          "name": "courseHash",
          "type": "bytes32"
        }
      ],
      "name": "repurchaseCourse",
      "outputs": [],
      "stateMutability": "payable",
      "type": "function",
      "payable": true
    },
    {
      "inputs": [
        {
          "internalType": "bytes32",
          "name": "courseHash",
          "type": "bytes32"
        }
      ],
      "name": "activateCourse",
      "outputs": [],
      "stateMutability": "nonpayable",
      "type": "function"
    },
    {
      "inputs": [
        {
          "internalType": "bytes32",
          "name": "courseHash",
          "type": "bytes32"
        }
      ],
      "name": "deactivateCourse",
      "outputs": [],
      "stateMutability": "nonpayable",
      "type": "function"
    },
    {
      "inputs": [
        {
          "internalType": "address",
          "name": "newOwner",
          "type": "address"
        }
      ],
      "name": "transferOwnership",
      "outputs": [],
      "stateMutability": "nonpayable",
      "type": "function"
    },
    {
      "inputs": [],
      "name": "getCourseCount",
      "outputs": [
        {
          "internalType": "uint256",
          "name": "",
          "type": "uint256"
        }
      ],
      "stateMutability": "view",
      "type": "function",
      "constant": true
    },
    {
      "inputs": [
        {
          "internalType": "uint256",
          "name": "index",
          "type": "uint256"
        }
      ],
      "name": "getCourseHashAtIndex",
      "outputs": [
        {
          "internalType": "bytes32",
          "name": "",
          "type": "bytes32"
        }
      ],
      "stateMutability": "view",
      "type": "function",
      "constant": true
    },
    {
      "inputs": [],
      "name": "getAllOwnedCourses",
      "outputs": [
        {
          "components": [
            {
              "internalType": "uint256",
              "name": "id",
              "type": "uint256"
            },
            {
              "internalType": "uint256",
              "name": "price",
              "type": "uint256"
            },
            {
              "internalType": "bytes32",
              "name": "proof",
              "type": "bytes32"
            },
            {
              "internalType": "address",
              "name": "owner",
              "type": "address"
            },
            {
              "internalType": "enum CourseMarketplace.State",
              "name": "state",
              "type": "uint8"
            }
          ],
          "internalType": "struct CourseMarketplace.Course[]",
          "name": "",
          "type": "tuple[]"
        }
      ],
      "stateMutability": "view",
      "type": "function",
      "constant": true
    },
    {
      "inputs": [
        {
          "internalType": "bytes32",
          "name": "courseHash",
          "type": "bytes32"
        }
      ],
      "name": "getCourseByHash",
      "outputs": [
        {
          "components": [
            {
              "internalType": "uint256",
              "name": "id",
              "type": "uint256"
            },
            {
              "internalType": "uint256",
              "name": "price",
              "type": "uint256"
            },
            {
              "internalType": "bytes32",
              "name": "proof",
              "type": "bytes32"
            },
            {
              "internalType": "address",
              "name": "owner",
              "type": "address"
            },
            {
              "internalType": "enum CourseMarketplace.State",
              "name": "state",
              "type": "uint8"
            }
          ],
          "internalType": "struct CourseMarketplace.Course",
          "name": "",
          "type": "tuple"
        }
      ],
      "stateMutability": "view",
      "type": "function",
      "constant": true
    },
    {
      "inputs": [],
      "name": "getContractOwner",
      "outputs": [
        {
          "internalType": "address",
          "name": "",
          "type": "address"
        }
      ],
      "stateMutability": "view",
      "type": "function",
      "constant": true
    }
  ],
  "bytecode": "0x608060405260008060006101000a81548160ff02191690831515021790555034801561002a57600080fd5b5061003a3361003f60201b60201c565b610083565b80600460006101000a81548173ffffffffffffffffffffffffffffffffffffffff021916908373ffffffffffffffffffffffffffffffffffffffff16021790555050565b611d71806100926000396000f3fe6080604052600436106100f75760003560e01c80636d11290b1161008a578063c4bc5da511610059578063c4bc5da5146102ee578063d76821cb14610305578063db2e21bc14610321578063f2fde38b14610338576100fe565b80636d11290b14610246578063935d7e6d1461028357806396cfda06146102ac5780639cb8a26a146102d7576100fe565b8063442890d5116100c6578063442890d5146101975780636136e1eb146101c257806362e4e6ac146101de5780636b319c651461021b576100fe565b806312253a6c146101035780632e1a7d4d1461011a57806339262572146101435780633f683b6a1461016c576100fe565b366100fe57005b600080fd5b34801561010f57600080fd5b50610118610361565b005b34801561012657600080fd5b50610141600480360381019061013c91906116f4565b6103e9565b005b34801561014f57600080fd5b5061016a600480360381019061016591906116cb565b610527565b005b34801561017857600080fd5b50610181610713565b60405161018e91906119f0565b60405180910390f35b3480156101a357600080fd5b506101ac610724565b6040516101b991906119b3565b60405180910390f35b6101dc60048036038101906101d791906116cb565b61074e565b005b3480156101ea57600080fd5b50610205600480360381019061020091906116cb565b610915565b6040516102129190611a66565b60405180910390f35b34801561022757600080fd5b50610230610a3d565b60405161023d91906119ce565b60405180910390f35b34801561025257600080fd5b5061026d600480360381019061026891906116f4565b610c52565b60405161027a9190611a0b565b60405180910390f35b34801561028f57600080fd5b506102aa60048036038101906102a591906116cb565b610c6f565b005b3480156102b857600080fd5b506102c1610f3a565b6040516102ce9190611a81565b60405180910390f35b3480156102e357600080fd5b506102ec610f44565b005b3480156102fa57600080fd5b50610303611002565b005b61031f600480360381019061031a919061168f565b61108a565b005b34801561032d57600080fd5b5061033661128f565b005b34801561034457600080fd5b5061035f600480360381019061035a9190611666565b6113e3565b005b610369610724565b73ffffffffffffffffffffffffffffffffffffffff163373ffffffffffffffffffffffffffffffffffffffff16146103cd576040517f74a2152700000000000000000000000000000000000000000000000000000000815260040160405180910390fd5b60016000806101000a81548160ff021916908315150217905550565b6103f1610724565b73ffffffffffffffffffffffffffffffffffffffff163373ffffffffffffffffffffffffffffffffffffffff1614610455576040517f74a2152700000000000000000000000000000000000000000000000000000000815260040160405180910390fd5b6000600460009054906101000a900473ffffffffffffffffffffffffffffffffffffffff1673ffffffffffffffffffffffffffffffffffffffff168260405161049d9061199e565b60006040518083038185875af1925050503d80600081146104da576040519150601f19603f3d011682016040523d82523d6000602084013e6104df565b606091505b5050905080610523576040517f08c379a000000000000000000000000000000000000000000000000000000000815260040161051a90611a26565b60405180910390fd5b5050565b60008054906101000a900460ff161561053f57600080fd5b610547610724565b73ffffffffffffffffffffffffffffffffffffffff163373ffffffffffffffffffffffffffffffffffffffff16146105ab576040517f74a2152700000000000000000000000000000000000000000000000000000000815260040160405180910390fd5b6105b48161145b565b6105ea576040517f29dfcf8900000000000000000000000000000000000000000000000000000000815260040160405180910390fd5b60006001600083815260200190815260200160002090506000600281111561063b577f4e487b7100000000000000000000000000000000000000000000000000000000600052602160045260246000fd5b8160030160149054906101000a900460ff166002811115610685577f4e487b7100000000000000000000000000000000000000000000000000000000600052602160045260246000fd5b146106bc576040517fbb8cecb500000000000000000000000000000000000000000000000000000000815260040160405180910390fd5b60018160030160146101000a81548160ff0219169083600281111561070a577f4e487b7100000000000000000000000000000000000000000000000000000000600052602160045260246000fd5b02179055505050565b60008054906101000a900460ff1681565b6000600460009054906101000a900473ffffffffffffffffffffffffffffffffffffffff16905090565b60008054906101000a900460ff161561076657600080fd5b61076f8161145b565b6107a5576040517f29dfcf8900000000000000000000000000000000000000000000000000000000815260040160405180910390fd5b6107ae816114e0565b6107e4576040517f95bf1d7f00000000000000000000000000000000000000000000000000000000815260040160405180910390fd5b6000600160008381526020019081526020016000209050600280811115610834577f4e487b7100000000000000000000000000000000000000000000000000000000600052602160045260246000fd5b8160030160149054906101000a900460ff16600281111561087e577f4e487b7100000000000000000000000000000000000000000000000000000000600052602160045260246000fd5b146108b5576040517fbb8cecb500000000000000000000000000000000000000000000000000000000815260040160405180910390fd5b60008160030160146101000a81548160ff02191690836002811115610903577f4e487b7100000000000000000000000000000000000000000000000000000000600052602160045260246000fd5b02179055503481600101819055505050565b61091d611592565b600160008381526020019081526020016000206040518060a00160405290816000820154815260200160018201548152602001600282015481526020016003820160009054906101000a900473ffffffffffffffffffffffffffffffffffffffff1673ffffffffffffffffffffffffffffffffffffffff1673ffffffffffffffffffffffffffffffffffffffff1681526020016003820160149054906101000a900460ff1660028111156109fa577f4e487b7100000000000000000000000000000000000000000000000000000000600052602160045260246000fd5b6002811115610a32577f4e487b7100000000000000000000000000000000000000000000000000000000600052602160045260246000fd5b815250509050919050565b6060600060035467ffffffffffffffff811115610a83577f4e487b7100000000000000000000000000000000000000000000000000000000600052604160045260246000fd5b604051908082528060200260200182016040528015610abc57816020015b610aa9611592565b815260200190600190039081610aa15790505b50905060005b600354811015610c4a57600060016000610adb84610c52565b81526020019081526020016000209050806040518060a00160405290816000820154815260200160018201548152602001600282015481526020016003820160009054906101000a900473ffffffffffffffffffffffffffffffffffffffff1673ffffffffffffffffffffffffffffffffffffffff1673ffffffffffffffffffffffffffffffffffffffff1681526020016003820160149054906101000a900460ff166002811115610bb6577f4e487b7100000000000000000000000000000000000000000000000000000000600052602160045260246000fd5b6002811115610bee577f4e487b7100000000000000000000000000000000000000000000000000000000600052602160045260246000fd5b81525050838381518110610c2b577f4e487b7100000000000000000000000000000000000000000000000000000000600052603260045260246000fd5b6020026020010181905250508080610c4290611b94565b915050610ac2565b508091505090565b600060026000838152602001908152602001600020549050919050565b60008054906101000a900460ff1615610c8757600080fd5b610c8f610724565b73ffffffffffffffffffffffffffffffffffffffff163373ffffffffffffffffffffffffffffffffffffffff1614610cf3576040517f74a2152700000000000000000000000000000000000000000000000000000000815260040160405180910390fd5b610cfc8161145b565b610d32576040517f29dfcf8900000000000000000000000000000000000000000000000000000000815260040160405180910390fd5b600060016000838152602001908152602001600020905060006002811115610d83577f4e487b7100000000000000000000000000000000000000000000000000000000600052602160045260246000fd5b8160030160149054906101000a900460ff166002811115610dcd577f4e487b7100000000000000000000000000000000000000000000000000000000600052602160045260246000fd5b14610e04576040517fbb8cecb500000000000000000000000000000000000000000000000000000000815260040160405180910390fd5b60008160030160009054906101000a900473ffffffffffffffffffffffffffffffffffffffff1673ffffffffffffffffffffffffffffffffffffffff168260010154604051610e529061199e565b60006040518083038185875af1925050503d8060008114610e8f576040519150601f19603f3d011682016040523d82523d6000602084013e610e94565b606091505b5050905080610ed8576040517f08c379a0000000000000000000000000000000000000000000000000000000008152600401610ecf90611a46565b60405180910390fd5b60028260030160146101000a81548160ff02191690836002811115610f26577f4e487b7100000000000000000000000000000000000000000000000000000000600052602160045260246000fd5b021790555060008260010181905550505050565b6000600354905090565b60008054906101000a900460ff16610f5b57600080fd5b610f63610724565b73ffffffffffffffffffffffffffffffffffffffff163373ffffffffffffffffffffffffffffffffffffffff1614610fc7576040517f74a2152700000000000000000000000000000000000000000000000000000000815260040160405180910390fd5b600460009054906101000a900473ffffffffffffffffffffffffffffffffffffffff1673ffffffffffffffffffffffffffffffffffffffff16ff5b61100a610724565b73ffffffffffffffffffffffffffffffffffffffff163373ffffffffffffffffffffffffffffffffffffffff161461106e576040517f74a2152700000000000000000000000000000000000000000000000000000000815260040160405180910390fd5b60008060006101000a81548160ff021916908315150217905550565b60008054906101000a900460ff16156110a257600080fd5b600082336040516020016110b7929190611972565b6040516020818303038152906040528051906020012090506000600360008154809291906110e490611b94565b9190505590506110f3826114e0565b1561112a576040517f0aaf0b9b00000000000000000000000000000000000000000000000000000000815260040160405180910390fd5b8160026000838152602001908152602001600020819055506040518060a001604052808281526020013481526020018481526020013373ffffffffffffffffffffffffffffffffffffffff168152602001600060028111156111b5577f4e487b7100000000000000000000000000000000000000000000000000000000600052602160045260246000fd5b8152506001600084815260200190815260200160002060008201518160000155602082015181600101556040820151816002015560608201518160030160006101000a81548173ffffffffffffffffffffffffffffffffffffffff021916908373ffffffffffffffffffffffffffffffffffffffff16021790555060808201518160030160146101000a81548160ff02191690836002811115611281577f4e487b7100000000000000000000000000000000000000000000000000000000600052602160045260246000fd5b021790555090505050505050565b60008054906101000a900460ff166112a657600080fd5b6112ae610724565b73ffffffffffffffffffffffffffffffffffffffff163373ffffffffffffffffffffffffffffffffffffffff1614611312576040517f74a2152700000000000000000000000000000000000000000000000000000000815260040160405180910390fd5b6000600460009054906101000a900473ffffffffffffffffffffffffffffffffffffffff1673ffffffffffffffffffffffffffffffffffffffff164760405161135a9061199e565b60006040518083038185875af1925050503d8060008114611397576040519150601f19603f3d011682016040523d82523d6000602084013e61139c565b606091505b50509050806113e0576040517f08c379a00000000000000000000000000000000000000000000000000000000081526004016113d790611a26565b60405180910390fd5b50565b6113eb610724565b73ffffffffffffffffffffffffffffffffffffffff163373ffffffffffffffffffffffffffffffffffffffff161461144f576040517f74a2152700000000000000000000000000000000000000000000000000000000815260040160405180910390fd5b6114588161154e565b50565b600080600160008481526020019081526020016000209050600073ffffffffffffffffffffffffffffffffffffffff168160030160009054906101000a900473ffffffffffffffffffffffffffffffffffffffff1673ffffffffffffffffffffffffffffffffffffffff16146114d55760019150506114db565b60009150505b919050565b60003373ffffffffffffffffffffffffffffffffffffffff166001600084815260200190815260200160002060030160009054906101000a900473ffffffffffffffffffffffffffffffffffffffff1673ffffffffffffffffffffffffffffffffffffffff16149050919050565b80600460006101000a81548173ffffffffffffffffffffffffffffffffffffffff021916908373ffffffffffffffffffffffffffffffffffffffff16021790555050565b6040518060a00160405280600081526020016000815260200160008019168152602001600073ffffffffffffffffffffffffffffffffffffffff1681526020016000600281111561160c577f4e487b7100000000000000000000000000000000000000000000000000000000600052602160045260246000fd5b81525090565b60008135905061162181611cdf565b92915050565b60008135905061163681611cf6565b92915050565b60008135905061164b81611d0d565b92915050565b60008135905061166081611d24565b92915050565b60006020828403121561167857600080fd5b600061168684828501611612565b91505092915050565b600080604083850312156116a257600080fd5b60006116b085828601611627565b92505060206116c18582860161163c565b9150509250929050565b6000602082840312156116dd57600080fd5b60006116eb8482850161163c565b91505092915050565b60006020828403121561170657600080fd5b600061171484828501611651565b91505092915050565b60006117298383611884565b60a08301905092915050565b61173e81611af1565b82525050565b61174d81611af1565b82525050565b61176461175f82611af1565b611bdd565b82525050565b600061177582611aac565b61177f8185611ac4565b935061178a83611a9c565b8060005b838110156117bb5781516117a2888261171d565b97506117ad83611ab7565b92505060018101905061178e565b5085935050505092915050565b6117d181611b03565b82525050565b6117e86117e382611b0f565b611bef565b82525050565b6117f781611b3b565b82525050565b61180681611b3b565b82525050565b61181581611b82565b82525050565b6000611828600f83611ae0565b915061183382611c76565b602082019050919050565b600061184b600083611ad5565b915061185682611c9f565b600082019050919050565b600061186e600f83611ae0565b915061187982611ca2565b602082019050919050565b60a08201600082015161189a6000850182611954565b5060208201516118ad6020850182611954565b5060408201516118c060408501826117ee565b5060608201516118d36060850182611735565b5060808201516118e6608085018261180c565b50505050565b60a0820160008201516119026000850182611954565b5060208201516119156020850182611954565b50604082015161192860408501826117ee565b50606082015161193b6060850182611735565b50608082015161194e608085018261180c565b50505050565b61195d81611b78565b82525050565b61196c81611b78565b82525050565b600061197e82856117d7565b60108201915061198e8284611753565b6014820191508190509392505050565b60006119a98261183e565b9150819050919050565b60006020820190506119c86000830184611744565b92915050565b600060208201905081810360008301526119e8818461176a565b905092915050565b6000602082019050611a0560008301846117c8565b92915050565b6000602082019050611a2060008301846117fd565b92915050565b60006020820190508181036000830152611a3f8161181b565b9050919050565b60006020820190508181036000830152611a5f81611861565b9050919050565b600060a082019050611a7b60008301846118ec565b92915050565b6000602082019050611a966000830184611963565b92915050565b6000819050602082019050919050565b600081519050919050565b6000602082019050919050565b600082825260208201905092915050565b600081905092915050565b600082825260208201905092915050565b6000611afc82611b58565b9050919050565b60008115159050919050565b60007fffffffffffffffffffffffffffffffff0000000000000000000000000000000082169050919050565b6000819050919050565b6000819050611b5382611ccb565b919050565b600073ffffffffffffffffffffffffffffffffffffffff82169050919050565b6000819050919050565b6000611b8d82611b45565b9050919050565b6000611b9f82611b78565b91507fffffffffffffffffffffffffffffffffffffffffffffffffffffffffffffffff821415611bd257611bd1611c0b565b5b600182019050919050565b6000611be882611bf9565b9050919050565b6000819050919050565b6000611c0482611c69565b9050919050565b7f4e487b7100000000000000000000000000000000000000000000000000000000600052601160045260246000fd5b7f4e487b7100000000000000000000000000000000000000000000000000000000600052602160045260246000fd5b60008160601b9050919050565b7f5472616e73666572206661696c65640000000000000000000000000000000000600082015250565b50565b7f7472616e73666572206661696c65640000000000000000000000000000000000600082015250565b60038110611cdc57611cdb611c3a565b5b50565b611ce881611af1565b8114611cf357600080fd5b50565b611cff81611b0f565b8114611d0a57600080fd5b50565b611d1681611b3b565b8114611d2157600080fd5b50565b611d2d81611b78565b8114611d3857600080fd5b5056fea26469706673582212202f45ce380cd4af9d0537e9af58f0c2f5328f5a0777f75a0bdea5ec6a245a436364736f6c63430008040033",
  "immutableReferences": {},
  "source": "// SPDX-License-Identifier: GPL-3.0\n\npragma solidity >=0.7.0 <0.9.0;\n\ncontract CourseMarketplace {\n    enum State {\n        Purchased,\n        Activated,\n        Deactivated\n    }\n\n    struct Course {\n        uint256 id; // 32 bytes\n        uint256 price; // 32 bytes\n        bytes32 proof; // 32 bytes\n        address owner; // 20 bytes\n        State state; // 1 byte\n    }\n\n    bool public isStopped = false;\n\n    // mapping of courseHash to Course data\n    mapping(bytes32 => Course) private ownedCourses;\n\n    // mapping of courseID to courseHash\n    mapping(uint256 => bytes32) private ownedCoursesHashList;\n\n    // number of all courses and id of the course\n    uint256 private totalOwnedCourses;\n\n    address payable private owner;\n\n    constructor() {\n        setContractOwner(msg.sender);\n    }\n\n    /// This address already owns this course\n    error AddressAlreadyOwnsCourseError();\n\n    /// You don't have the permission to perform this operation\n    error NotOwnerError();\n\n    /// This course does not exist\n    error CourseDoesNotExistError();\n\n    /// Course has invalid state!\n    error InvalidStateError();\n\n    /// Sender is not course owner\n    error SenderIsNotCourseOwnerError();\n\n    modifier onlyOwner() {\n        if (msg.sender != getContractOwner()) {\n            revert NotOwnerError();\n        }\n        _;\n    }\n\n    modifier onlyWhenNotStopped() {\n        require(!isStopped);\n        _;\n    }\n\n    modifier onlyWhenStopped() {\n        require((isStopped));\n        _;\n    }\n\n    // makes your contract to receive payments from\n    // normal address to smart contract address\n    receive() external payable {}\n\n    function withdraw(uint256 amount) external onlyOwner {\n        (bool success, ) = owner.call{value: amount}(\"\");\n        require(success, \"Transfer failed\");\n    }\n\n    function emergencyWithdraw() external onlyWhenStopped onlyOwner {\n        (bool success, ) = owner.call{value: address(this).balance}(\"\");\n        require(success, \"Transfer failed\");\n    }\n\n    function selfDestruct() external onlyWhenStopped onlyOwner {\n        // destorys the contract and transfers all the amount to the owner\n        // automatically\n        selfdestruct(owner);\n    }\n\n    function stopContract() external onlyOwner {\n        isStopped = true;\n    }\n\n    function resumeContract() external onlyOwner {\n        isStopped = false;\n    }\n\n    function purchaseCourse(bytes16 courseId, bytes32 proof)\n        external\n        payable\n        onlyWhenNotStopped\n    {\n        // keccak256 & abi are globally available in solidity\n        // abi.encodePacked(arg); is used when we want to has multiple values\n        // all at once\n        // courseHas will be unique value formed from the hash of\n        // the senders address and the courseId\n        bytes32 courseHash = keccak256(abi.encodePacked(courseId, msg.sender));\n        uint256 id = totalOwnedCourses++;\n\n        if (isAddressOwner(courseHash)) {\n            revert AddressAlreadyOwnsCourseError();\n        }\n\n        ownedCoursesHashList[id] = courseHash;\n        ownedCourses[courseHash] = Course({\n            id: id,\n            price: msg.value,\n            proof: proof,\n            owner: msg.sender,\n            state: State.Purchased\n        });\n    }\n\n    function repurchaseCourse(bytes32 courseHash)\n        external\n        payable\n        onlyWhenNotStopped\n    {\n        if (!isCourseExisting(courseHash)) {\n            revert CourseDoesNotExistError();\n        }\n\n        if (!isAddressOwner(courseHash)) {\n            revert SenderIsNotCourseOwnerError();\n        }\n\n        Course storage course = ownedCourses[courseHash];\n\n        if (course.state != State.Deactivated) {\n            revert InvalidStateError();\n        }\n\n        course.state = State.Purchased;\n        course.price = msg.value;\n    }\n\n    function activateCourse(bytes32 courseHash)\n        external\n        onlyWhenNotStopped\n        onlyOwner\n    {\n        if (!isCourseExisting(courseHash)) {\n            revert CourseDoesNotExistError();\n        }\n\n        Course storage course = ownedCourses[courseHash];\n\n        if (course.state != State.Purchased) {\n            revert InvalidStateError();\n        }\n\n        course.state = State.Activated;\n    }\n\n    function deactivateCourse(bytes32 courseHash)\n        external\n        onlyWhenNotStopped\n        onlyOwner\n    {\n        if (!isCourseExisting(courseHash)) {\n            revert CourseDoesNotExistError();\n        }\n\n        Course storage course = ownedCourses[courseHash];\n\n        if (course.state != State.Purchased) {\n            revert InvalidStateError();\n        }\n\n        (bool success, ) = course.owner.call{value: course.price}(\"\");\n\n        require(success, \"transfer failed\");\n        course.state = State.Deactivated;\n        course.price = 0;\n    }\n\n    function transferOwnership(address newOwner) external onlyOwner {\n        setContractOwner(newOwner);\n    }\n\n    function getCourseCount() external view returns (uint256) {\n        return totalOwnedCourses;\n    }\n\n    function getCourseHashAtIndex(uint256 index) public view returns (bytes32) {\n        return ownedCoursesHashList[index];\n    }\n\n    function getAllOwnedCourses() external view returns (Course[] memory) {\n        Course[] memory courses = new Course[](totalOwnedCourses);\n        for (uint256 i = 0; i < totalOwnedCourses; i++) {\n            Course storage course = ownedCourses[getCourseHashAtIndex(i)];\n            courses[i] = course;\n        }\n\n        return courses;\n    }\n\n    function getCourseByHash(bytes32 courseHash)\n        external\n        view\n        returns (Course memory)\n    {\n        return ownedCourses[courseHash];\n    }\n\n    function getContractOwner() public view returns (address) {\n        return owner;\n    }\n\n    function setContractOwner(address newOwner) private {\n        // owner = newOwner;\n        owner = payable(newOwner);\n    }\n\n    function isCourseExisting(bytes32 courseHash) private view returns (bool) {\n        Course storage course = ownedCourses[courseHash];\n\n        if (course.owner != 0x0000000000000000000000000000000000000000) {\n            return true;\n        }\n        return false;\n    }\n\n    function isAddressOwner(bytes32 courseHash) private view returns (bool) {\n        return ownedCourses[courseHash].owner == msg.sender;\n    }\n}\n\n/**\nconstructor\nexternal functions\nexternal functions that are view\nexternal functions that are pure\npublic functions\npublic functions that are view\npublic functions that are pure\ninternal functions\ninternal functions that are view\ninternal functions that are pure\nprivate functions\nprivate functions that are view\nprivate functison that are pure\n */\n",
  "sourcePath": "/home/russellbest/Development/Blockchain/marketplace-eth/contracts/CourseMarketplace.sol",
  "compiler": {
    "name": "solc",
    "version": "0.8.4+commit.c7e474f2.Emscripten.clang"
  },
  "schemaVersion": "3.4.10",
  "updatedAt": "2022-11-10T10:33:01.337Z",
  "networkType": "ethereum",
  "devdoc": {
    "kind": "dev",
    "methods": {},
    "version": 1
  },
  "userdoc": {
    "errors": {
      "AddressAlreadyOwnsCourseError()": [
        {
          "notice": "This address already owns this course"
        }
      ],
      "CourseDoesNotExistError()": [
        {
          "notice": "This course does not exist"
        }
      ],
      "InvalidStateError()": [
        {
          "notice": "Course has invalid state!"
        }
      ],
      "NotOwnerError()": [
        {
          "notice": "You don't have the permission to perform this operation"
        }
      ],
      "SenderIsNotCourseOwnerError()": [
        {
          "notice": "Sender is not course owner"
        }
      ]
    },
    "kind": "user",
    "methods": {},
    "version": 1
  }
}